:020000040000FA
:020000001B28BB
:080008000C1F09000C13831208
:1000100003131E08831203138700831603131E089D
:100020008312031386000608993C031D44284928BF
:100030001F154F2009008316031386018701FF3027
:100040008800890080309F00831203138601870196
:10005000FF308800890083120313E9309F004F208E
:100060008312031383120313C0308B008312031314
:10007000831603130C1783160313831203130C1335
:10008000831203131F154F2088114F201F154F2077
:10009000042888154F201F154F2004284E28A03013
:1000A000A000A030A100A10B5328A00B51280800EC
:00000001FF
